:020000040000FA
:060000000A128A110C280F
:10000800FE00030EF2000A08F3000A128A114C2BB4
:100018000A128A110F28F801F90183010A128A11BC
:10002800B52B83120313B5002B30AD002D08B0009B
:10003800E828253036060319222823282F283608D1
:10004800AD00350884002D08831380000130AD0011
:100058002D08B507E828B1010130AA07FF302A07A3
:1000680084000A128A110A240A128A11B600AD0005
:10007800AE012E08003A03194228E8282D08003A54
:100088000319FA28643A03194D280D3A03194D2823
:10009800E8283008840083130008B300840A0008A5
:1000A800B4000230AD002D08B007B41F5C285D28ED
:1000B80066280330AD002D08B104B309B409B30AAA
:1000C8000319B40AB601B60A3608AD002D07013E79
:1000D80084000A128A110A240A128A11AE000A122E
:1000E8008A110A240A128A11AF002F083402031D4C
:1000F8007F282E08330203188228832884288E2814
:100108000130AD002D08B60705303606031D8D28D1
:100118008E286828310803390319932894289F28C2
:100128002D30AD00350884002D0883138000013080
:10013800AD002D08B5073608AD002D08B200DF2840
:100148000A30A4000030A5003208AD002D07013E9A
:1001580084000A128A110A240A128A11F4000A1267
:100168008A110A240A128A11F5003408F7003308A4
:10017800F6000A128A11CA220A128A117508831215
:100188000313A7007408A6000A128A1110230A1282
:100198008A11831203132408303EAE002E08B600DD
:1001A8003608AD00350884002D088313800001301F
:1001B800AD002D08B507FF30AD002D08B207320A93
:1001C800031DE728E828A4280130AA07FF302A07DA
:1001D80084000A128A110A240A128A11AD002D0815
:1001E800B6003608031DF928FA281D2835088400AA
:1001F800831380010800D0300A128A1127240A12BA
:100208008A113B300A128A1137240A128A110A12FB
:100218008A118E240A128A11D1300A128A112724CF
:100228000A128A1100300A128A11E3230A128A116B
:1002380000300A128A11E3230A128A1100300A12C6
:100248008A11E3230A128A1183120313B700B80133
:1002580000300A128A11E3230A128A118312031347
:10026800B900BA013908BA00B90137083904831648
:100278000313D4008312031338083A0483160313B4
:10028800D50000300A128A11E3230A128A110030BD
:100298000A128A11E3230A128A1100300A128A11FB
:1002A800E3230A128A1100300A128A11E3230A1280
:1002B8008A1100300A128A11E3230A128A110030C7
:1002C8000A128A11E3230A128A1100300A128A11CB
:1002D800E3230A128A1100300A128A11E3230A1250
:1002E8008A1100300A128A11E3230A128A11013096
:1002F8000A128A11E3230A128A110A128A118E2419
:100308000A128A118030F4000030F50083160313B6
:100318005408003EF60055080318013E403EF70019
:100328000A128A1161220A128A11740883120313AD
:1003380086000B30B7003708AA0083160313550848
:1003480083120313AC008316031354088312031398
:10035800AB00A0300A128A1115200A128A118312E2
:1003680003130608B700B8013708F5003808F60087
:100378000A128A1182230A128A1108000230831293
:100388000313A2000430A100B930A000A00BCA29B1
:10039800A10BCA29A20BCA29D1290A128A116324DE
:1003A8000A128A11D0300A128A1127240A128A11D5
:1003B80019300A128A1137240A128A1107300A12D0
:1003C8008A1137240A128A110A128A118E240A12F3
:1003D8008A11D0300A128A1127240A128A116B3026
:1003E8000A128A1137240A128A1101300A128A1154
:1003F80037240A128A110A128A118E240A128A11C3
:10040800D0300A128A1127240A128A111A300A12C5
:100418008A1137240A128A1100300A128A113724E5
:100428000A128A110A128A118E240A128A11D030ED
:100438000A128A1127240A128A111C300A128A11F8
:1004480037240A128A1100300A128A1137240A1234
:100458008A110A128A118E240A128A11D0300A12BD
:100468008A1127240A128A111B300A128A1137248A
:100478000A128A1118300A128A1137240A128A11AC
:100488000A128A118E240A128A11D0300A128A118D
:1004980027240A128A1138300A128A1137240A12BC
:1004A8008A1101300A128A1137240A128A110A1293
:1004B8008A118E240A128A11080083120313A201DA
:1004C800F51F672A682A6F2AF409F509F40A03193F
:1004D800F50AA201A20AF71F722A732A7C2AF609D2
:1004E800F709F60A0319F70A0130A0002008A20646
:1004F800A301A401740875040319832A842ABB2A5A
:10050800A101A10A922A01300310F40DF50DFF3E56
:10051800031D882A0130A0002008A107F51F952A8D
:10052800962A872A01300310A30DA40DFF3E031D50
:10053800972A75087702031DA32A74087602031CFC
:10054800A62AA72AAE2A7408F6027508031CF70320
:10055800F702231401300310F50CF40CFF3E031DC1
:10056800AF2A0130A102031DBA2ABB2A962A220803
:100578000319BF2AC02AC52AA309A409A30A031973
:10058800A40A2408F5002308F400080083120313C2
:10059800A201A301740875040319D32AD42A0B2BCA
:1005A800A101A10AE22A01300310F40DF50DFF3E66
:1005B800031DD82A0130A0002008A107F51FE52A4D
:1005C800E62AD72A01300310A20DA30DFF3E031D12
:1005D800E72A75087702031DF32A74087602031CBC
:1005E800F62AF72AFE2A7408F6027508031CF70390
:1005F800F702221401300310F50CF40CFF3E031D22
:10060800FF2A0130A102031D0A2B0B2BE62A23081F
:10061800F5002208F40008008312031324082504B7
:100628000319172B182B472BA901A90A262B0130D0
:100638000310A40DA50DFF3E031D1C2B0130A800BF
:100648002808A907A51F292B2A2B1B2B25082702B9
:10065800031D302B24082602031C332B342B3A2B82
:100668002408A6022508031CA703A70201300310CB
:10067800A50CA40CFF3E031D3B2B0130A902031D52
:10068800462B472B2A2B2708A5002608A40008007C
:10069800831203138C1E512B522B5A2B8C121A08BF
:1006A800F000F1017008F8007108F9000A307806C6
:1006B8007904031D602B612B632B08087B2B0B30FF
:1006C80078067904031D692B6A2B6B2B612B0C3080
:1006D80078067904031D712B722B732B612B0D3057
:1006E80078067904031D792B7A2B7B2B612B7308F1
:1006F8008A00720E8300FE0E7E0E09008312031319
:10070800A201A301A22B22087507A0002308031841
:10071800230A7607A100200884008317211C83136D
:1007280000080A128A1170240A128A1101308312F1
:100738000313A2070318A30A0030A30722087507AA
:10074800A00023080318230A7607A10020088400C4
:100758008317211C83130008031DB32BB42B872B8D
:1007680008000A128A1197240A128A110A128A1199
:1007780047240A128A118316031308118601880177
:100788008316031789010A128A11C2210A128A11D3
:1007980004308312031388060A128A11FF200A12F2
:1007A8008A11823083120313BC00DD30BB00BB0BFF
:1007B800DB2BBC0BDB2BCC2B0A128A110C28F50087
:1007C800831603139115141CEA2BEB2BE72B8312CA
:1007D80003131308F4007408F6007508031DF52BBD
:1007E800F62BFC2B0A128A1185240A128A11012C75
:1007F8000A128A117C240A128A11831203138C1D8F
:10080800062C072C012C8C117608080004308A006D
:100818000408840A82070034013400340A3400349E
:1008280064340034E8340334103427342034413439
:10083800793420343D342034253464342034203451
:10084800203420340034F5000A128A1156240A1282
:100858008A1183160313111475080A128A11372492
:100868000A128A110800F4000A128A1156240A1280
:100878008A1174088312031393008C1D442C452C91
:10088800412C8C1108008316031318110C309900A1
:100898001812831203139817831603130717871761
:1008A800981608008316031314195B2C5C2C562C1D
:1008B80011081F39031D612C622C562C08002830A2
:1008C8008312031394008316031391019401CF300C
:1008D8009300871507160800F40083160313981C65
:1008E800762C772C712C7408831203139900080056
:1008F8008316031391161116111A832C842C802C3D
:1009080008008316031391121116111A8C2C8D2CC2
:10091800892C08000A128A1156240A128A11831691
:10092800031311150800831603138C160C12831277
:0809380003138C128B17080059
:04400E00D42CFF3E71
:00000001FF
